:100000000E308A003B2E0000FF00030E8301A1008A
:100010000A08A0008A010408A2007708A300780853
:10002000A4007908A5007A08A60003170D08031399
:10003000A70003170F080313A80003170C080313E6
:10004000A90003170E080313AA00831383128C3030
:100050008400801E2D288C1A4E2822088400230834
:10006000F7002408F8002508F9002608FA002708F8
:1000700003178D000313280803178F0003132908A3
:1000800003178C0003132A0803178E00031320089C
:100090008A00210E8300FF0E7F0E09008A110A12CA
:1000A00059280A108A100A11820728340F340134A3
:1000B000063440148C1E5A281A08C100C0148C1231
:1000C0008A110A122D280C23693AEE32F339CC3406
:1000D000E632733A79366505CB32791D20008C22E1
:1000E0006E3A6539A0266F3265104122CD1F0A1580
:1000F000A0162025EF346E008C18AD20643220103D
:10010000B316D634E53B0A00B216C4326C10201A7E
:10011000AD2A7036EF3064008C2AF3327210D2327E
:10012000E734733A65398A24441D20000C22653671
:10013000653A6510D53965398A24441D20000C2B99
:10014000E9327710D53965398A182D1049222010E7
:100150002010B2162028E13973008C2A7036EF3057
:100160006410E430F4303F052A102D10F3326E3263
:1001700000010C2BE9327710D53965398A24441DEA
:1001800020000C2BE9327710D53965390A28E1397E
:10019000731D20008C25E53CA020C4263A100001E8
:1001A0008C2AF3327210D232E734733A65390A2856
:1001B000E139731D20008C246E3B613669322100C9
:1001C0000C28E139F33B6F3964054937E33772395D
:1001D000E53174008C2B6536E337ED322105492279
:1001E000A01275008C29E530F2316810ED30EE3048
:1001F000E73272054922A01275008C22F834733A56
:1002000069376705492200000C326536653AE937DF
:100210006E10F7307305F33AE331E5397333753611
:1002200000018C244410EE377410C6377537640013
:100230008C246E3B6136693221008C2A7036EF3097
:10024000E434EE330A326F37273A2032E939E337A4
:10025000EE32633A20000C052010C3376D38EC32C3
:10026000F432E41000008C244410EE377410C637CA
:10027000753764008C244410A53A0001A029F4309D
:10028000F43A7310A53A00010A28E1397310A53930
:1002900000008C244410EE377410C63775376400A4
:1002A0008C244410A53A0001A029F430F43A7310CC
:1002B000A53A00010A28E1397310A53900008C2500
:1002C000E53C20336F39A020C4268A24EE316F39F3
:1002D000F232633A00008C2AF33272106132E43257
:1002E0006405F33AE331E53973337536EC3C0001CC
:1002F0008C22F834733A69376705F030F339F737F1
:10030000723200008C2A7032613A693767172E17F3
:100310000A000830F8000430F700F70B8D29871128
:10032000AB112B08831687000330F700F70B9629D3
:100330008312D80D0712031CA3292B162B08831632
:100340008700A72983122B122B0883168700000031
:100350008312AB152B08831687008312871DAE29E5
:10036000F80B8B290430F700F70BB4298711AB1178
:100370002B0883168700000083122B162B08831688
:1003800087000330F700F70BC3290330F700F70BA2
:10039000C7298312AB152B08831687008312871D8C
:1003A000CF29F8010330F700F70BD429071A781486
:1003B0008711AB112B0883168700831207122B12AB
:1003C0002B0883168700831208002B162B08831630
:1003D00087000430F700F70BEB298312AB152B08CD
:1003E000831687000330F700F70BF42983120712F6
:1003F0002B122B08831687000430F700F70BFE2919
:1004000083128711AB112B0883168700A03083124B
:10041000D800892178085710781857142B122B0808
:100420008316870000008312AB152B088316870004
:100430008312871D192A0430F700F70B1D2A202A82
:1004400000002B162B08831687000430F700F70BEB
:10045000272A00308312571C0130F8000800E521DC
:10046000F80803192F2A2B162B088316870004304F
:10047000F700F70B392A8312AB152B088316870078
:100480000330F700F70B422A831207122B122B08B6
:10049000831687000430F700F70B4C2A831287116C
:1004A000AB112B08831687008312550CFA00540CED
:1004B000F900FA0CF90CFA0CF90CFA0CF90CFA0C1C
:1004C000F90CFA0CF90CFA0CF90C0130FA05790860
:1004D000A038FE39D700D80089215408D8008921D6
:1004E0002B162B08831687000430F700F70B762AAB
:1004F0008312AB152B08831687000330F700F70B28
:100500007F2A8312871D822A07122B122B0883163B
:1005100087000430F700F70B8B2A83128711AB1189
:100520002B08831687008312550CFA00540CF9002F
:10053000FA0CF90CFA0CF90CFA0CF90CFA0CF90C8F
:10054000FA0CF90CFA0CF90C0130FA057908A0380C
:100550000138D700D8008921F7010830D800770882
:10056000D9002B162B08831687000330F700F70BF2
:10057000B72A8312AB152B08831687008312871DB9
:10058000BF2A071A0314071E0310F80D0430F700E2
:10059000F70BC82AAB112B0883168700831287112B
:1005A000D80BB12A2B162B08831687000330F700CF
:1005B000F70BD82A8312071259080319E42A2B12C1
:1005C0002B088316870083120000AB152B088316B7
:1005D00087008312871DEA2A0430F700F70BEE2A02
:1005E0008711AB112B08831687000330F700F70B38
:1005F000F72A831207122B122B088316870078081C
:100600008312D6002B122B0883168700000083125A
:10061000AB152B08831687008312871D0D2B043022
:10062000F700F70B112B142B00002B162B08831649
:1006300087000430F700F70B1B2B83125608F800D5
:100640000800AB152B088316870083122B162B0886
:10065000831687008312AF01AE01AC012F08D500CD
:100660002E08D4002F22780F362B3C2B0630AE07F5
:100670000318AF0AAC0A2E2BAD0101302D07FC3C4C
:10068000CA000130CB000030031C0130CB024B0804
:10069000D5004A08D4002F22780F4F2B512BAD0ADA
:1006A0003D2B080053308400831300080319652B89
:1006B0000630F800F701F70B5B2BF80B5A2B7B3059
:1006C000F700F70B612B800B582B08005A186A2B88
:1006D00008126B2B0816831608128312DA18722B75
:1006E0008812732B88168316881283125A197A2B54
:1006F00008137B2B0817831608138312DA19822B31
:100700008813832B88178316881389108312891402
:100710008316891083128910080083160911831229
:100720000911D708031D962B0911972B091583165C
:100730000911A630F700F70B9B2B000089108312DC
:100740008910580ED9000F30D9055908DA006623F0
:1007500058080F39D900DA006623080083160812FA
:1007600083120812831688128312881283160813C4
:1007700083120813831688138312881383160911B2
:100780008312091183168910831289100F30D30048
:1007900052230130CA004A08033C031CD72B033004
:1007A000DA0066230530D3005223CA0ACB2B02306D
:1007B000DA006623CA014A08033C031CE82B4A08F6
:1007C0005120CB00D7014B08D8008D23CA0ADB2B60
:1007D0008A150A12632ECB08031DF02B0610F12B8D
:1007E0000614831606108312CC08031DF92B8610FD
:1007F000FA2B8614831686108312CD08031D022C53
:100800000611032C0615831606118312CE08031D4C
:100810000B2C86110C2C861583168611143083122E
:10082000D30052230800CB01CC01CD01CE01EB2334
:100830008A150A12662E52080C3A0319292C063A18
:100840000319312C073A0319312C053A0319472CA7
:100850004C2CD7010130D8008D230230D300522315
:10086000512C0130D3000230D400540B382C3B2CD7
:100870004030D5003C2CD50101305302D507550836
:100880008038D600D7015608D8008D23512CD701C7
:100890001030D8008D23512C0130D7005208D800D9
:1008A0008D2308000B08CF008B13831603178C17BA
:1008B0000C140000000083120313CF1B8B170317C7
:1008C0000C087F390319A62C0313CF0003170D085A
:1008D0000313D00003170F080313D1004F08D200F1
:1008E0001B24500803178D000313510803178F00B2
:1008F00003130B08D2008B13831603178C170C14E9
:100900000000000083120313D21B8B1703170C0D7A
:100910000E0D7F390319A62C0313CF0003170D0802
:100920000313D00003170F080313D1004F08D200A0
:100930001B24500803178D000313510803178F0061
:100940008D0A03198F0A0313522C0317031308008F
:10095000B9014E08BA00CE08031DB62C6330031748
:100960008D0000308F0003135224322D4E0BC02C0B
:100970006F3003178D0000308F0003135224322D87
:100980004E08023C031DD32C7C3003178D00003031
:100990008F0003135224843003178D0000308F0022
:1009A00003135224322D4E08033C031DDF2C8C30E0
:1009B00003178D0000308F0003135224322D4E0890
:1009C000043C031DEB2C963003178D0000308F0084
:1009D00003135224322D4E08053C031DF72C9F3083
:1009E00003178D0000308F0003135224322D4E0860
:1009F000063C031D032DAD3003178D0000308F0022
:100A000003135224322D4E08073C031D0F2DB9301D
:100A100003178D0000308F0003135224322D4E082F
:100A2000083C031D1B2DC13003178D0000308F00C3
:100A300003135224322D4E08093C031D272DCA30C2
:100A400003178D0000308F0003135224322D4E08FF
:100A50000A3C031D322DD03003178D0000308F006B
:100A6000031352240800E521F8080319332D2B162F
:100A70002B08831687000430F700F70B3D2D8312F7
:100A8000AB152B08831687000330F700F70B462DB4
:100A9000831207122B122B08831687000430F700ED
:100AA000F70B502D83128711AB112B08831687008B
:100AB0008312540CFA00530CF900FA0CF90CFA0CDE
:100AC000F90CFA0CF90CFA0CF90CFA0CF90CFA0CFA
:100AD000F90C0130FA057908A038FE39D600D800A3
:100AE00089215308D80089215508D80089212B1263
:100AF0002B088316870000008312AB152B08831682
:100B000087008312871D822D0430F700F70B862D96
:100B1000892D00002B162B08831687000430F70060
:100B2000F70B902D83120800CE014E08033C031CE6
:100B3000B32D4E08FF3CCF000130D0000030031C25
:100B40000130D0024E084C07840083134D188317E0
:100B50000008D1005008D4004F08D3005108D50038
:100B60003325CE0A952D8A150A12882ECB01CA018B
:100B70004B08013C031CCD2D031DC22D4A08FB3C34
:100B8000031CCD2D4B08D4004A08D300FF30D500FC
:100B90003325CA0A0319CB0AB82DAC01AD018A1559
:100BA0000A12972E8316061600308312061A013099
:100BB000F700770DCB00CB0DCB0DF830CB058316AE
:100BC000861600308312861A0130F700F70DF70DF4
:100BD000FC30F7057708CB04831606170030831224
:100BE000061B0130F7000310F70D7708CB048316BE
:100BF000861700308312861B01304B04073A031915
:100C00000B2E0C3A0319442E063A03197D2E033A93
:100C10000319B62EEF2ECB010130CC00CD00CE0053
:100C2000EB23831606168312061A192E3130CA00DA
:100C3000112E0130CB00CC01CD00CE00EB2383166A
:100C400006168312061A272E3430CA001F2E0130D2
:100C5000CB00CC00CD01CE00EB2383160616831209
:100C6000061A352E3730CA002D2E0130CB00CC00AD
:100C7000CD00CE01EB23831606168312061A432EEF
:100C80002A30CA003B2EF02ECB010130CC00CD0023
:100C9000CE00EB23831686168312861A522E32302C
:100CA000CA004A2E0130CB00CC01CD00CE00EB2390
:100CB000831686168312861A602E3530CA00582E87
:100CC0000130CB00CC00CD01CE00EB23831686167D
:100CD0008312861A6E2E3830CA00662E0130CB0081
:100CE000CC00CD00CE01EB23831686168312861A24
:100CF0007C2E3030CA00742EF02ECB010130CC0097
:100D0000CD00CE00EB23831606178312061B8B2E15
:100D10003330CA00832E0130CB00CC01CD00CE0091
:100D2000EB23831606178312061B992E3630CA0052
:100D3000912E0130CB00CC00CD01CE00EB238316E9
:100D400006178312061BA72E3930CA009F2E0130CA
:100D5000CB00CC00CD00CE01EB2383160617831207
:100D6000061BB52E2330CA00AD2EF02ECB0101306C
:100D7000CC00CD00CE00EB23831686178312861B92
:100D8000C42E4130CA00BC2E0130CB00CC01CD00B6
:100D9000CE00EB23831686178312861BD22E423099
:100DA000CA00CA2E0130CB00CC00CD01CE00EB230F
:100DB000831686178312861BE02E4330CA00D82E76
:100DC0000130CB00CC00CD00CE01EB23831686177B
:100DD0008312861BEE2E4430CA00E62EF02ECA0186
:100DE000CB01CC01CD01CE01EB23CA080319FB2EA8
:100DF000C830D30052234A08F8008A150A12D42EAC
:100E0000F701F801510803105218F707F70CF80C16
:100E1000D218F707F70CF80C5219F707F70CF80C73
:100E2000D219F707F70CF80C521AF707F70CF80C61
:100E3000D21AF707F70CF80C521BF707F70CF80C4F
:100E4000D21BF707F70CF80C0800AF01AE012C0815
:100E5000D1000630D20000277808AF08031D602FAC
:100E60002E020318602F4E14CF014F08033C031CC1
:100E7000592F02302E07D0002F08D1000318D10AB5
:100E80004F08D0070318D10A5108D5005008D400E4
:100E90002F227808D0004F084C07840083134D1888
:100EA0008317000850020319572F4E10592FCF0AED
:100EB000352F4E18632F0630AE070318AF0A272FC1
:100EC000AF010130AE0008002F08D5002E08D40075
:100ED0002F227808B00001302E07CF002F08D00055
:100EE0000318D00A5008D5004F08D4002F22311023
:100EF00078183114CF014F08033C031CA22F343063
:100F00004F07F800FA010318FA0A7808D0007A08A7
:100F1000D10002302E07D2002F08D3000318D30AC5
:100F20004F08D2070318D30A5308D5005208D4003B
:100F30002F225008840083135118831778088000EB
:100F4000CF0A7B2F3430F8000030F9007908B30065
:100F50007808B20008004F08F8014E020318B32FBA
:100F60004E08F700BF2FF7010830D000CE0DF70D67
:100F70004F0877020318F700F80DD00BB62F0800C2
:100F800078084C08CE006430CF00AB277708CC003F
:100F900078083030031DD32FCD1CDA2FCD19DA2F6E
:100FA0004D1A2030D62FCD114D124D14F807780868
:100FB000D2001B244C08CE000A30CF00AB277708A4
:100FC000CC0078083030031DEB2FCD19EF2F4D1CCE
:100FD000EF2F4D1A2030F8077808D2001B2430304C
:0A0FE000CC074C08D2001B240800C7
:101000000B08CD008B13831603178C170C140000EC
:10101000000083120313CD1B8B1703183928031705
:101020000C087F390313CD0003170D080313CE00FE
:1010300003170F080313CF004D08D2008A111B2499
:101040008A154E0803178D0003134F0803178F00EE
:1010500003130B08D0008B13831603178C170C1483
:101060000000000083120313D01B8B17CC0B392810
:101070005A2803170C0D0E0D7F390313CD000317EB
:101080000D080313CE0003170F080313CF004D08FC
:10109000D2008A111B248A154E0803178D000313F2
:1010A0004F0803178F008D0A03198F0A03100313CB
:1010B000CC0B002808003908B90A3B3E8400831392
:1010C0004A0880004A08233C031D6C28CE018A117F
:1010D000A8248A15042904294A082A3C031D7728D4
:1010E0000130CE008A11A8248A15042904294A084F
:1010F000CB004B08CC003A08CD004C08233C031D24
:1011000087284D08CE008A11A8248A15A0283908FE
:10111000043C031CA0282A30D2008A111B248A1503
:101120003908043C031DA0280230CE00FA30D30059
:101130008A1152238A15CE0B96280130F800A22876
:101140000030F800F80803190429CD013B30CC0029
:101150008A1125278A152E0BC328AF08031DC32823
:10116000E03003178D0000308F008A1103135224E2
:101170008A150830CC00FA30D3008A1152238A1520
:10118000CC0BBB2800298A1164278A15311CE02862
:10119000EA3003178D0000308F0003100D30031369
:1011A000CC0000203008CC001B30CD008A11C027B5
:1011B0008A152B102B088316870083120714F12839
:1011C000F23003178D0000308F000310133003132B
:1011D000CC0000203008CC001B30CD008A11C02785
:1011E0008A151430CC00FA30D3008A1152238A15A4
:1011F000CC0BF3282B102B088316870083120710C3
:10120000CE018A11A8248A158A150A12E02E3908FF
:10121000B90A3B3E840083134A0880004A082A3CEE
:10122000031D19290930CE008A11A8248A15B90195
:101230001D29CE018A11A8248A158A150A12E62EC4
:101240003908B90A3B3E840083134A0880004A08E3
:10125000CB004B08313C031D33290330CE008A11EB
:10126000A8248A1571294B08323C031D3D290430FE
:10127000CE008A11A8248A1571294B08333C031D1E
:1012800047290530CE008A11A8248A1571294B08F8
:10129000343C031D51290630CE008A11A8248A153A
:1012A00071294B08233C031D5A29CE018A11A82419
:1012B0008A157129DB3003178D0000308F008A11E9
:1012C000031352248A150630CC00FA30D3008A1159
:1012D00052238A15CC0B65290230CE008A11A8242E
:1012E0008A158A150A12EE2ECD01CE014E08023C57
:1012F000031C8E294D08D1000A30D2008A11002724
:101300008A157808CD004E084B07840083134C18CB
:10131000831730300002CD07CE0A76294D08F80039
:101320000800AF01AE012C08D1000630D2008A11AE
:1013300000278A157808AF08031DB1292E0203186B
:10134000B1292F08D5002E08D4008A112F228A1522
:101350004F0878020319B4290630AE070318AF0A04
:101360009329AF010130AE0008003908B90A3B3EAD
:10137000840083134A0880004A08D2008A111B2483
:101380008A154A08233C031DCB290230CE008A115E
:10139000A8248A15162A4A082A3C031DD529033099
:1013A000CE008A11A8248A15162A3908033C031D89
:1013B000162ACC013B30CB0074217808B0003008ED
:1013C000CF0091212E0BF629AF08031DF62902301C
:1013D000CB00FA30D3008A1152238A15CB0BE929AE
:1013E0000A30CE008A11A8248A15162A0230CB00B2
:1013F000FA30D3008A1152238A15CB0BF829FD301D
:1014000003178D0000308F008A11031352248A15B0
:101410000830CB00FA30D3008A1152238A15CB0B47
:101420000A2A0330CE008A11A8248A158A150A12C6
:10143000F62E2F08D4002E08D3003008D5008A11CC
:1014400033258A1501302E07D0002F08D10003184C
:10145000D10A003031180130D2005108D4005008B0
:10146000D3005208D5008A1133258A15CF014F08C1
:10147000033C031C592A02302E07D0002F08D1004C
:101480000318D10A4F08D0070318D10A4F083207B2
:1014900084008313331883170008D2005108D40046
:1014A0005008D3005208D5008A1133258A15CF0A77
:1014B000372A08003908B90A3B3E840083134A08DA
:1014C00080004A08D2008A111B248A154A08233C4E
:1014D000031D702A0230CE008A11A8248A150B2B16
:1014E0003908033C031D0B2B0230CB00FA30D3002C
:1014F0008A1152238A15CB0B762ACC013B30CB00C4
:1015000074217808B0003008CB004B08CF0091213F
:101510002E0B902AAF08031D902A0030F800D92A1C
:101520002F08CD002E08CC0001302C02D000D100B5
:101530000630D2008A1100278A15AF017808AE0064
:101540008A1164278A154D08AF004C08AE00192295
:10155000CE014E08053C031CC32A01302C02D000EA
:10156000D1000630D2008A1100278A154E0878076C
:10157000CF00D4014F08D300FF30D5008A113325A6
:101580008A15CE0AA92AAC03AD0A2D08FC3CCF006F
:101590000130D0000030031C0130D0025008D400CC
:1015A0004F08D3004B08D5008A1133258A15013026
:1015B000F800F8080319F42A043003178D000130ED
:1015C0008F008A11031352248A150830CB00FA3099
:1015D000D3008A1152238A15CB0BE72A0430CE00A0
:1015E0008A11A8248A150B2B113003178D000130A6
:1015F0008F008A11031352248A150830CB00FA3069
:10160000D3008A1152238A15CB0BFF2A0430CE0057
:101610008A11A8248A158A150A12FE2E3908B90AD9
:101620003B3E840083134A0880004A08233C031D84
:101630001F2B0230CE008A11A8248A15412B4A089C
:10164000313C031D292B0730CE008A11A8248A15AE
:10165000412B4A08323C031D332B0830CE008A113F
:10166000A8248A15412B183003178D0001308F00F4
:101670008A11031352248A150530CE008A11A8243A
:101680008A158A150A12062F4A082A3C031DEF2BD9
:101690001D3003178D0001308F008A11031352246F
:1016A0008A150130CB004B082D02031C742B4B080C
:1016B000FC3CCC000130CD000030031C0130CD02D9
:1016C0004D08D5004C08D4008A112F228A157808BD
:1016D000B00030080C1E6A2B99000A30D3008A1122
:1016E00052238A15CB0A532B0130CC004C082D0213
:1016F000031C8E2B4C08FC3CCD000130CE0000308A
:10170000031C0130CE024E08D4004D08D300FF3038
:10171000D5008A1133258A15CC0A762BAD010D3000
:101720000C1E902B9900CB012C084B020318D32BD5
:101730004B08D1000630D2008A1100278A15AF016C
:101740007808AE008A1164278A15003031180130FC
:10175000CC0030080C1EAA2B99004C080C1EAE2B96
:101760009900320884008313331883178008031903
:10177000CC2BCE010408CD004E10831B4E14000864
:101780000C1EC02B99004D08840083134E1883173C
:10179000840A0319850AB62B0A30D3008A11522312
:1017A0008A15CB0A942B0A300C1ED42B99002B30AF
:1017B00003178D0001308F008A11031352248A15FC
:1017C0000430CC00FA30D3008A1152238A15CC0B96
:1017D000E22B0230CE008A11A8248A15F42B0230A5
:1017E000CE008A11A8248A158A150A120E2F8008A5
:1017F00003190E2CCC010408CB004C10831B4C1495
:101800000008D2008A111B248A154B088400831318
:101810004C188317840A0319850AF72B0800390826
:10182000B90A3B3E840083134A0880004A08D2006C
:101830008A111B248A154A08233C031D252C0230DB
:10184000CE008A11A8248A15A92C4A082A3C031D17
:101850002F2C0730CE008A11A8248A15A92C39080C
:10186000033C031DA92C0230CB00FA30D3008A11AF
:1018700052238A15CB0B352CCC013B30CB00742185
:101880007808B0003008CF0091212E0B622CAF08F1
:10189000031D622C333003178D0001308F008A1135
:1018A000031352248A150830CB00FA30D3008A1172
:1018B00052238A15CB0B552C0530CE008A11A82453
:1018C0008A15A92C8A1164278A153A3003178D00CE
:1018D00001308F00031004300313CC0000203008C7
:1018E000CC001B30CD008A11C0278A15003031187A
:1018F0000130CB003E3003178D0001308F00031004
:1019000008300313CC0000204B08CC001B30CD0066
:101910008A11C0278A15443003178D0001308F00CB
:10192000031006300313CC00002032088400831318
:1019300033188317F7231430CB00FA30D3008A1101
:1019400052238A15CB0B9D2C0530CE008A11A8247A
:101950008A158A150A12162F3908B90A3B3E8400E7
:1019600083134A0880004A08D2008A111B248A1572
:101970004A08233C031DC22C0230CE008A11A82441
:101980008A15472D4A082A3C031DCC2C0730CE006F
:101990008A11A8248A15472D3908043C031D472DB8
:1019A0000230CB00FA30D3008A1152238A15CB0BB8
:1019B000D22CB3013B30B2003308CD003208CC004A
:1019C0008A1125278A152E0B002DAF08031D002D27
:1019D000493003178D0001308F008A110313522400
:1019E0008A150830CB00FA30D3008A1152238A15A9
:1019F000CB0BF32C0530CE008A11A8248A15472D75
:101A00008A1164278A15503003178D0001308F002A
:101A1000031004300313CC0000203008CC001B302E
:101A2000CD008A11C0278A15003031180130CB0053
:101A3000543003178D0001308F000310083003135A
:101A4000CC0000204B08CC001B30CD008A11C027F1
:101A50008A155A3003178D0001308F0003100630AD
:101A60000313CC000020320884008313331883173B
:101A7000F7231430CB00FA30D3008A1152238A1591
:101A8000CB0B3B2D0530CE008A11A8248A158A1570
:101A90000A121E2F3908B90A3B3E840083134A08F4
:101AA00080002A30D2008A111B248A154A08233C60
:101AB000031D5F2DCE018A11A8248A15B62D390881
:101AC000043C031DB62D0230CB00FA30D3008A113E
:101AD00052238A15CB0B652DCC013B30CB00CD01B9
:101AE0004D08033C031C952D4D08FF3CCE000130F2
:101AF000CF000030031C0130CF024F08D5004E0844
:101B0000D4008A112F228A157808CE004D084B0781
:101B1000840083134C18831700084E020319932D79
:101B20000030F800972DCD0A702D0130F800F8082C
:101B30000319A02D0230CE008A11A8248A15B62DD3
:101B40005F3003178D0001308F008A110313522478
:101B50008A150830CB00FA30D3008A1152238A1537
:101B6000CB0BAB2DCE018A11A8248A158A150A1237
:101B7000262F3908B90A3B3E840083134A088000A7
:101B80004A08D2008A111B248A154A08233C031DE7
:101B9000CF2D0330CE008A11A8248A15382E4A088A
:101BA0002A3C031DD92D0A30CE008A11A8248A159B
:101BB000382E3908043C031D382E0230CB00FA3091
:101BC000D3008A1152238A15CB0BDF2DB3013B3092
:101BD000B2003308CD003208CC008A1125278A15BF
:101BE0002E0B212EAF08031D212E3114AC0A01301B
:101BF0002C02CC00D1000630D2008A1100278A15B1
:101C0000AF017808AE0019220A30CE008A11A8244C
:101C10008A156B3003178D0001308F008A11031372
:101C200052248A150430CB00FA30D3008A11522393
:101C30008A15CB0B142E0230CE008A11A8248A15E7
:101C4000382E783003178D0001308F008A1103136E
:101C500052248A150430CB00FA30D3008A11522363
:101C60008A15CB0B2C2E0A30CE008A11A8248A1597
:101C70008A150A122E2F03081F398300FF30AB008C
:101C8000AC01AD01813083169900A63098009030E8
:101C900083129800B901BA014010C010C301C201FB
:101CA00083161F149F141F159F1107309C00831368
:101CB0008312B401B501B601B701B8018A1121231D
:101CC0008A158A11AE2B8A158A11132C8A15831650
:101CD0008113F03086008312AB102B088316870027
:101CE0008312871483168C16C03083128B04CE01A6
:101CF0008A11A8248A154130C4003130C50039301A
:101D0000C6004430C700C801CD01CC008A11942D13
:101D10008A15401CD22E41080D3C031DD22E83167D
:101D20000810013083128806C0108A11B62D8A155A
:101D3000823003178D0001308F008A110313522463
:101D40008A15401CCA2EC01CC42E831608100130F0
:101D50008312880641080A3C031DB22E4010C301BD
:101D6000C201C42E4308FA004208C20A0319C30A7A
:101D7000CA007A08CB00D4004A08D3004108D50035
:101D80008A1133258A15C0100130D3008A115223DD
:101D90008A15A12E8A1121238A15CE018A11A82421
:101DA0008A15892E8A11D22D8A157808C900C9088A
:101DB00003192E2FBA08031DE12E4908CA005B281B
:101DC0002E2F3A0BE72E4908CA0007292E2F3A0872
:101DD000023C031DEF2E4908CA0020292E2F3A0885
:101DE000033C031DF72E4908CA00B5292E2F3A08D7
:101DF000043C031DFF2E4908CA005A2A2E2F3A0818
:101E0000053C031D072F4908CA000E2B2E2F3A0848
:101E1000063C031D0F2F4908CA00442B2E2F3A08F9
:101E2000073C031D172F4908CA000F2C2E2F3A0814
:101E3000083C031D1F2F4908CA00AC2C2E2F3A085E
:101E4000093C031D272F4908CA004A2D2E2F3A08A6
:101E50000A3C031D2E2F4908CA00B92D0130D300BA
:0A1E60008A1152238A15892E6300AF
:02400E00323F3F
:00000001FF
;PIC16F877A
;CRC=D2BF  CREATED="09-abr-21 10:40"
